:020000040800F2
:1000000000000220B5110008291000082B1000087C
:100010002D1000082F10000831100008000000000B
:100020000000000000000000000000003310000885
:1000300035100008000000003710000839100008D3
:100040000512000805120008051200080512000834
:100050000512000805120008051200080512000824
:100060000512000805120008051200080512000814
:100070000512000805120008051200080512000804
:1000800005120008051200080512000805120008F4
:1000900005120008051200080512000805120008E4
:1000A00005120008051200080512000805120008D4
:1000B00005120008051200080512000805120008C4
:1000C00005120008051200080512000805120008B4
:1000D00005120008051200080512000805120008A4
:1000E0000512000805120008051200080512000894
:1000F0000512000805120008051200080512000884
:100100000512000805120008051200080512000873
:100110000512000805120008051200080512000863
:100120000512000805120008051200080512000853
:100130000512000805120008051200080512000843
:100140000512000805120008051200080512000833
:100150000512000805120008051200080512000823
:100160000512000805120008051200080512000813
:100170000512000805120008051200080000000022
:08018000051200080512000839
:1001C00053B94AB9002908BF00281CBF4FF0FF31BE
:1001D0004FF0FF3000F00CB8ADF1080C6DE904CE23
:1001E00001F0E4FDDDF804E0DDE9022304B070472E
:1001F000704700BF00000000000000000000000089
:1002000001F0FF01102A2BDB10F0070F08D010F8C7
:10021000013B013A8B422DD010F0070F42B3F6D1CB
:10022000F0B441EA012141EA014122F007047FF0E4
:1002300000070023F0E80256083C85EA010586EA3B
:10024000010685FA47F5A3FA87F586FA47F6A5FA77
:1002500087F68EB9EED1F0BC01F0FF0102F0070283
:1002600032B110F8013B013A83EA010313B1F8D12E
:100270000020704701387047002D06BF354603380F
:10028000073815F0010F07D1013015F4807F02BF48
:10029000013015F4C03F0130F0BC0138704700BF99
:1002A000844641EA000313F003036DD1403A41D381
:1002B00051F8043B40F8043B51F8043B40F8043B40
:1002C00051F8043B40F8043B51F8043B40F8043B30
:1002D00051F8043B40F8043B51F8043B40F8043B20
:1002E00051F8043B40F8043B51F8043B40F8043B10
:1002F00051F8043B40F8043B51F8043B40F8043B00
:1003000051F8043B40F8043B51F8043B40F8043BEF
:1003100051F8043B40F8043B51F8043B40F8043BDF
:1003200051F8043B40F8043B51F8043B40F8043BCF
:10033000403ABDD2303211D351F8043B40F8043B6F
:1003400051F8043B40F8043B51F8043B40F8043BAF
:1003500051F8043B40F8043B103AEDD20C3205D37F
:1003600051F8043B40F8043B043AF9D2043208D077
:10037000D2071CBF11F8013B00F8013B01D30B88E9
:1003800003806046704700BF082A13D38B078DD0C7
:1003900010F003038AD0C3F10403D21ADB071CBF99
:1003A00011F8013B00F8013B80D331F8023B20F803
:1003B000023B7BE7043AD9D3013A11F8013B00F83C
:1003C000013BF9D20B7803704B7843708B788370C4
:1003D00060467047000000000000000000000000C0
:1003E000000000000000000000000000000000000D
:1003F00000000000000000000000000000000000FD
:1004000030B490F800F020F007016FF0000C10F00D
:10041000070491F820F040F048804FF000046FF09E
:100420000700D1E9002391F840F000F1080082FABA
:100430004CF2A4FA8CF283FA4CF3A2FA8CF34BBB85
:10044000D1E9022382FA4CF200F10800A4FA8CF2FE
:1004500083FA4CF3A2FA8CF3E3B9D1E9042382FACC
:100460004CF200F10800A4FA8CF283FA4CF3A2FAE1
:100470008CF37BB9D1E9062301F1200182FA4CF219
:1004800000F10800A4FA8CF283FA4CF3A2FA8CF380
:10049000002BC6D0002A04BF04301A4612BAB2FAA2
:1004A00082F200EBD20030BC7047D1E9002304F0A7
:1004B0000305C4F100004FEAC50514F0040F91F8DC
:1004C00040F00CFA05F562EA05021CBF63EA050379
:1004D00062464FF00004AAE781F0004102E000BF4D
:1004E00083F0004330B54FEA41044FEA430594EAF4
:1004F000050F08BF90EA020F1FBF54EA000C55EA2F
:10050000020C7FEA645C7FEA655C00F0E2804FEAFF
:100510005454D4EB5555B8BF6D420CDD2C4480EAE1
:10052000020281EA030382EA000083EA010180EA11
:10053000020281EA0303362D88BF30BD11F0004F5F
:100540004FEA01314FF4801C4CEA113102D0404295
:1005500061EB410113F0004F4FEA03334CEA1333D0
:1005600002D0524263EB430394EA050F00F0A780E8
:10057000A4F10104D5F1200E0DDB02FA0EFC22FAE3
:1005800005F2801841F1000103FA0EF2801843FAD7
:1005900005F359410EE0A5F120050EF1200E012AC8
:1005A00003FA0EFC28BF4CF0020C43FA05F3C01806
:1005B00051EBE37101F0004507D54FF0000EDCF17F
:1005C000000C7EEB00006EEB0101B1F5801F1BD328
:1005D000B1F5001F0CD349085FEA30004FEA3C0C2C
:1005E00004F101044FEA445212F5800F80F09A8022
:1005F000BCF1004F08BF5FEA500C50F1000041EB26
:10060000045141EA050130BD5FEA4C0C404141EB29
:100610000101013C28BFB1F5801FE9D291F0000F24
:1006200004BF01460020B1FA81F308BF2033A3F1D3
:100630000B03B3F120020CDA0C3208DD02F1140CCA
:10064000C2F10C0201FA0CF021FA02F10CE002F105
:100650001402D8BFC2F1200C01FA02F120FA0CFCFE
:10066000DCBF41EA0C019040E41AA2BF01EB045147
:10067000294330BD6FEA04041F3C1CDA0C340EDC45
:1006800004F11404C4F1200220FA04F001FA02F388
:1006900040EA030021FA04F345EA030130BDC4F146
:1006A0000C04C4F1200220FA02F001FA04F340EA3B
:1006B0000300294630BD21FA04F0294630BD94F0EC
:1006C000000F83F4801306BF81F480110134013DD3
:1006D0004EE77FEA645C18BF7FEA655C29D094EA44
:1006E000050F08BF90EA020F05D054EA000C04BFC2
:1006F0001946104630BD91EA030F1EBF00210020AD
:1007000030BD5FEA545C05D14000494128BF41F04B
:10071000004130BD14F580043CBF01F5801130BDAF
:1007200001F0004545F0FE4141F470014FF000003A
:1007300030BD7FEA645C1ABF194610467FEA655CEB
:100740001CBF0B46024650EA013406BF52EA03358D
:1007500091EA030F41F4002130BD00BF90F0000F7B
:1007600004BF0021704730B54FF4806404F13204B7
:100770004FF000054FF0000150E700BF90F0000F70
:1007800004BF0021704730B54FF4806404F1320497
:1007900010F0004548BF40424FF000013EE700BF67
:1007A00042004FEAE2014FEA31014FEA02701FBFF7
:1007B00012F07F4393F07F4F81F06051704732F029
:1007C0007F4208BF704793F07F4F04BF41F4002180
:1007D000704730B54FF4607401F0004521F00041DE
:1007E0001CE700BF50EA010208BF704730B54FF068
:1007F00000050AE050EA010208BF704730B511F069
:10080000004502D5404261EB41014FF4806404F1A0
:1008100032045FEA915C3FF4D8AE4FF003025FEA26
:10082000DC0C18BF03325FEADC0C18BF033202EBAA
:10083000DC02C2F1200300FA03FC20FA02F001FA04
:1008400003FE40EA0E0021FA02F11444BDE600BFA7
:1008500070B54FF0FF0C4CF4E06C1CEA11541DBF56
:100860001CEA135594EA0C0F95EA0C0F00F0DEF821
:100870002C4481EA030621EA4C5123EA4C5350EA06
:10088000013518BF52EA033541F4801143F4801357
:1008900038D0A0FB02CE4FF00005E1FB02E506F0E8
:1008A0000042E0FB03E54FF00006E1FB03569CF03D
:1008B000000F18BF4EF0010EA4F1FF04B6F5007F43
:1008C00064F5407404D25FEA4E0E6D4146EB0606B5
:1008D00042EAC62141EA55514FEAC52040EA5E503E
:1008E0004FEACE2EB4F1FD0C88BFBCF5E06F1ED8E8
:1008F000BEF1004F08BF5FEA500E50F1000041EB1F
:10090000045170BD06F0004646EA010140EA0200CB
:1009100081EA0301B4EB5C04C2BFD4EB0C0541EAED
:10092000045170BD41F480114FF0000E013C00F302
:10093000AB8014F1360FDEBF002001F0004170BD26
:10094000C4F10004203C35DA0C341BDC04F114043F
:10095000C4F1200500FA05F320FA04F001FA05F2CB
:1009600040EA020001F0004221F0004110EBD37098
:1009700021FA04F642EB06015EEA430E08BF20EAC4
:10098000D37070BDC4F10C04C4F1200500FA04F367
:1009900020FA05F001FA04F240EA020001F00041F9
:1009A00010EBD37041F100015EEA430E08BF20EA6C
:1009B000D37070BDC4F1200500FA05F24EEA020EB4
:1009C00020FA04F301FA05F243EA020321FA04F0E3
:1009D00001F0004121FA04F220EA020000EBD3709A
:1009E0005EEA430E08BF20EAD37070BD94F0000F9A
:1009F0000FD101F00046400041EB010111F4801FCE
:100A000008BF013CF7D041EA060195F0000F18BF7E
:100A1000704703F00046520043EB030313F4801FBA
:100A200008BF013DF7D043EA0603704794EA0C0F74
:100A30000CEA135518BF95EA0C0F0CD050EA41068A
:100A400018BF52EA4306D1D181EA030101F0004107
:100A50004FF0000070BD50EA410606BF104619462F
:100A600052EA430619D094EA0C0F02D150EA01363B
:100A700013D195EA0C0F05D152EA03361CBF10467C
:100A800019460AD181EA030101F0004141F0FE411B
:100A900041F470014FF0000070BD41F0FE4141F49F
:100AA000780170BD70B54FF0FF0C4CF4E06C1CEA9F
:100AB00011541DBF1CEA135594EA0C0F95EA0C0F54
:100AC00000F0A7F8A4EB050481EA030E52EA03350F
:100AD0004FEA013100F088804FEA03334FF0805530
:100AE00045EA131343EA12634FEA022245EA11155D
:100AF00045EA10654FEA00260EF000419D4208BF0E
:100B0000964244F1FD0404F5407402D25B084FEABA
:100B10003202B61A65EB03055B084FEA32024FF466
:100B200080104FF4002CB6EB020E75EB030E22BFC3
:100B3000B61A754640EA0C005B084FEA3202B6EB83
:100B4000020E75EB030E22BFB61A754640EA5C0032
:100B50005B084FEA3202B6EB020E75EB030E22BFC2
:100B6000B61A754640EA9C005B084FEA3202B6EBC3
:100B7000020E75EB030E22BFB61A754640EADC0082
:100B800055EA060E18D04FEA051545EA16754FEAE4
:100B900006164FEAC30343EA52734FEAC2025FEA02
:100BA0001C1CC0D111F4801F0BD141EA00014FF091
:100BB00000004FF0004CB6E711F4801F04BF014362
:100BC0000020B4F1FD0C88BFBCF5E06F3FF6AFAE7E
:100BD000B5EB030C04BFB6EB020C5FEA500C50F10E
:100BE000000041EB045170BD0EF0004E4EEA113191
:100BF00014EB5C04C2BFD4EB0C0541EA045170BD98
:100C000041F480114FF0000E013C90E645EA060EDB
:100C10008DE60CEA135594EA0C0F08BF95EA0C0F09
:100C20003FF43BAF94EA0C0F0AD150EA01347FF451
:100C300034AF95EA0C0F7FF425AF104619462CE728
:100C400095EA0C0F06D152EA03353FF4FDAE10468B
:100C5000194622E750EA410618BF52EA43067FF4DC
:100C6000C5AE50EA41047FF40DAF52EA43057FF46C
:100C7000EBAE12E74FF0FF3C06E000BF4FF0010C77
:100C800002E000BF4FF0010C4DF804CD4FEA410CDB
:100C90007FEA6C5C4FEA430C18BF7FEA6C5C1BD0A8
:100CA00001B050EA410C0CBF52EA430C91EA030F29
:100CB00002BF90EA020F0020704710F1000F91EA86
:100CC000030F58BF994208BF90422CBFD8176FEA54
:100CD000E37040F0010070474FEA410C7FEA6C5C22
:100CE00002D150EA013C07D14FEA430C7FEA6C5C29
:100CF000D6D152EA033CD3D05DF8040B704700BF55
:100D00008446104662468C461946634600E000BFA2
:100D100001B5FFF7B7FF002848BF10F1000F01BD74
:100D20004DF808EDFFF7F4FF0CBF012000205DF83F
:100D300008FB00BF4DF808EDFFF7EAFF34BF0120C4
:100D400000205DF808FB00BF4DF808EDFFF7E0FF5D
:100D500094BF012000205DF808FB00BF4DF808EDAE
:100D6000FFF7CEFF94BF012000205DF808FB00BF15
:100D70004DF808EDFFF7C4FF34BF012000205DF8F7
:100D800008FB00BF4FEA410C7FEA6C5C02D150EADD
:100D9000013C0AD14FEA430C7FEA6C5C02D152EA73
:100DA000033C02D14FF0000070474FF00100704744
:100DB0004FEA410212F5001215D211D56FF4787383
:100DC000B3EB625212D94FEAC12343F0004343EA26
:100DD000505311F0004F23FA02F018BF4042704701
:100DE0004FF00000704750EA013005D111F000408B
:100DF00008BF6FF0004070474FF00000704700BF21
:100E00000348044B834202D0034B03B11847704799
:100E1000E4060020E4060020000000000548064B20
:100E20001B1AD90F01EBA301491002D0034B03B1E8
:100E300018477047E4060020E40600200000000088
:100E400010B5064C237843B9FFF7DAFF044B13B112
:100E50000448AFF300800123237010BDE406002096
:100E6000000000008480000808B5054B1BB105494F
:100E70000548AFF30080BDE80840FFF7CFBF00BFD3
:100E800000000000E80600208480000830B589B02A
:100E90000024039404940594069407940094174B3B
:100EA0001A6B42F080021A631A6B02F08002009201
:100EB000009A01941A6B42F004021A631A6B02F052
:100EC00004020192019A02941A6B42F001021A6321
:100ED0001B6B03F001030293029B094D2246012183
:100EE000284600F05BFB01230393049305940694CA
:100EF00003A9284600F058FA09B030BD0038024076
:100F00000008024072B6FEE700B595B0302200211D
:100F100008A801F0F5F900230393049305930693C1
:100F2000079301931F4A116C41F080511164126CB8
:100F300002F080520192019A02931B4A116841F417
:100F400080411160126802F480420292029A0222E9
:100F5000089201210B9110210C910E920F930823FE
:100F60001093A823119312920423139308A800F05E
:100F700025FB98B90F2303930223049300230593C1
:100F80004FF4A05306934FF480530793052103A811
:100F900000F07EFD20B915B05DF804FBFFF7B2FF4D
:100FA000FFF7B0FF003802400070004010B500F0BD
:100FB00051F9FFF7A9FFFFF769FF00F093F810E080
:100FC0000121094800F0F0FA4FF47A7000F06EF950
:100FD0002146064801F038F90134A4B2B4F57A7F0D
:100FE000EED30024FAE700BF00080240A08000080A
:100FF00082B0002100910B4B5A6C42F480425A643B
:101000005A6C02F480420092009A01911A6C42F0EC
:1010100080521A641B6C03F080530193019B02B051
:10102000704700BF00380240FEE7FEE7FEE7FEE73C
:10103000FEE770477047704708B500F025F908BD16
:101040000120704708B501F001FA162303604FF044
:10105000FF3008BD08B54FF0FF31FFF7F3FFFEE7A3
:1010600070B50C461646002506E0AFF30080214619
:1010700001F8010B01350C46B542F6DB304670BD78
:101080004FF0FF3070474FF400534B600020704723
:10109000012070470020704710B503460C4A0D49E7
:1010A0000D48006840B10C4800680344521A93424E
:1010B00006D8094A136010BD0748084C0460F2E7DF
:1010C00001F0C4F90C2303604FF0FF30F3E700BFD9
:1010D000000002200004000000070020680A002031
:1010E0007047000008B50A480A4B03604FF4E1332B
:1010F000436000238360C36003610C22426183610B
:10110000C36100F023FE00B908BDFFF7FBFEFBE75B
:10111000040700200010014000B589B000230393AC
:101120000493059306930793026803F1804303F544
:1011300088339A4202D009B05DF804FB0021019186
:1011400003F594335A6C42F010025A645A6C02F060
:1011500010020192019A02911A6B42F001021A6385
:101160001B6B03F001030293029B4FF4C0630393D4
:1011700002230493032306930723079303A902483A
:1011800000F012F9D7E700BF0000024010464FF010
:10119000000C0AE0064B1B6813F0400FFAD011F860
:1011A0000C20034B5A600CF1010C8445F2DB7047B4
:1011B00000100140DFF834D0FFF792FF0C480D49D2
:1011C0000D4A002302E0D458C4500433C4188C42A2
:1011D000F9D30A4A0A4C002301E013600432A24208
:1011E000FBD301F039F9FFF7E1FE70470000022060
:1011F00000000020E4060020D0840008E40600205F
:10120000640A0020FEE7000010B504460E4B1A7871
:101210004FF47A73B3FBF2F30C4A1068B0FBF3F0AF
:1012200000F0AEF868B90F2C01D901200AE00022C5
:1012300021464FF0FF3000F093F8054B1C60002072
:1012400000E0012010BD00BF0400002000000020CD
:101250000800002008B50B4B1A6842F400721A60AF
:101260001A6842F480621A601A6842F480721A6046
:10127000032000F063F80F20FFF7C6FFFFF7B8FE6A
:10128000002008BD003C0240034A1168034B1B7854
:101290000B441360704700BF4C070020040000207F
:1012A000014B1868704700BF4C07002038B5044652
:1012B000FFF7F6FF0546B4F1FF3F02D0044B1B7861
:1012C0001C44FFF7EDFF401BA042FAD338BD00BF1E
:1012D00004000020002808DB0901C9B200F16040C9
:1012E00000F5614080F80013704700F00F0009011D
:1012F000C9B2014B1954704714ED00E000B500F07D
:101300000700C0F1070CBCF1040F28BF4FF0040C1C
:10131000031D062B0FD9C31E4FF0FF3E0EFA0CF033
:1013200021EA000199400EFA03FE22EA0E0241EA88
:1013300002005DF804FB0023EEE70000074AD368D3
:1013400023F4E0631B041B0C000200F4E060034381
:1013500043F0BF6343F40033D360704700ED00E017
:1013600010B50446054BD868C0F30220FFF7C6FF4E
:1013700001462046FFF7AEFF10BD00BF00ED00E0C4
:101380000138B0F1807F0BD24FF0E0235861054A5D
:10139000F02182F823100020986107221A6170471B
:1013A0000120704700ED00E000230F2B00F2EC80DD
:1013B00030B583B068E085684FEA430E032404FA31
:1013C0000EF425EA0405CC6804FA0EF42C4384607C
:1013D000446824EA02044A68C2F300129A40224395
:1013E00042605FE0DC08083450F8242003F0070571
:1013F000AD004FF00F0E0EFA05FE22EA0E0E0A693E
:10140000AA4042EA0E0240F824205FE0072200E0F2
:10141000002202FA0EF22A4302345C4D45F82420E1
:101420005B4A94686FEA0C0224EA0C05D1F804E0E8
:101430001EF4801F01D04CEA0405554CA560E468F9
:1014400002EA0405D1F804E01EF4001F01D04CEAC2
:1014500004054F4CE560646802EA0405D1F804E035
:101460001EF4003F01D04CEA0405494C6560246835
:1014700022404D6815F4803F01D04CEA0402444CF0
:10148000226001330F2B7DD801229A400C6804EAB8
:10149000020C32EA0404F4D14C6804F00304013C69
:1014A000012C88D94A6802F00302032A09D0C468D3
:1014B0005D000322AA4024EA02048A68AA4022436B
:1014C000C2604A6802F00302022A8BD004684FEA25
:1014D000430E032202FA0EF224EA02044A6802F0E2
:1014E000030202FA0EF2224302604A6812F4403FFD
:1014F000C7D000220192274A546C44F480445464BB
:10150000526C02F480420192019A9C08A51C1F4A69
:1015100052F8255003F0030E4FEA8E0E0F2202FA06
:101520000EF225EA02051C4A90423FF471AF02F523
:10153000806290421AD002F58062904218D002F583
:101540008062904216D002F58062904214D002F57B
:101550008062904212D002F58062904210D002F573
:10156000806290423FF452AF082252E7012250E7D6
:1015700002224EE703224CE704224AE7052248E70D
:10158000062246E703B030BD704700BF0038014077
:10159000003C014000380240000002400AB1816175
:1015A0007047090481617047436901EA030221EA37
:1015B000030141EA0241816170470000002800F008
:1015C000E08170B582B00446036813F0010F3BD090
:1015D0009F4B9B6803F00C03042B2CD09C4B9B6807
:1015E00003F00C03082B21D06368B3F5803F4FD084
:1015F000B3F5A02F52D0964B1A6822F480321A60AD
:101600001A6822F480221A606368002B50D0FFF71A
:1016100047FE05468E4B1B6813F4003F14D1FFF7BD
:101620003FFE401B6428F5D90320B1E1884B5B687D
:1016300013F4800FD8D0864B1B6813F4003F03D0FF
:101640006368002B00F09F81236813F0020F54D0D1
:101650007F4B9B6813F00C0F3ED07D4B9B6803F0D3
:101660000C03082B33D0E368002B68D0794B0122A0
:101670001A60FFF715FE0546754B1B6813F0020F45
:1016800054D1FFF70DFE401B0228F5D903207FE15E
:101690006F4A136843F480331360B5E76C4B1A68E4
:1016A00042F480221A601A6842F480321A60ABE772
:1016B000FFF7F6FD0546664B1B6813F4003FC3D0E9
:1016C000FFF7EEFD401B6428F5D9032060E1604B75
:1016D0005B6813F4800FC6D15D4B1B6813F0020FDB
:1016E00003D0E368012B40F05081594A136823F07E
:1016F000F803216943EAC1031360236813F0080F5C
:1017000042D063696BB3534B0122C3F8802EFFF7BD
:10171000C7FD05464E4B5B6F13F0020F34D1FFF748
:10172000BFFD401B0228F5D9032031E1484A136868
:1017300023F0F803216943EAC1031360DDE7454B59
:1017400000221A60FFF7ACFD0546414B1B6813F001
:10175000020FD2D0FFF7A4FD401B0228F5D90320C9
:1017600016E13C4B0022C3F8802EFFF799FD054699
:10177000374B5B6F13F0020F06D0FFF791FD401B54
:101780000228F5D9032003E1236813F0040F77D072
:101790002F4B1B6C13F0805F33D1002301932C4B34
:1017A0001A6C42F080521A641B6C03F08053019350
:1017B000019B0125284B1B6813F4807F23D0A3686D
:1017C000012B34D0052B38D0214B1A6F22F00102A7
:1017D0001A671A6F22F004021A67A368002B3DD023
:1017E000FFF75EFD06461A4B1B6F13F0020F46D142
:1017F000FFF756FD801B41F288339842F3D903204E
:10180000C6E00025D6E7144A136843F480731360DA
:10181000FFF746FD0646104B1B6813F4807FCED1C0
:10182000FFF73EFD801B0228F5D90320B0E0084AEF
:10183000136F43F001031367CFE7054B1A6F42F0B4
:1018400004021A671A6F42F001021A67C5E700BF67
:10185000003802400000474200700040FFF720FDC2
:101860000646524B1B6F13F0020F08D0FFF718FD0E
:10187000801B41F288339842F3D9032088E0EDB908
:10188000A369002B00F08380484A926802F00C02A2
:10189000082A51D0022B17D0454B00221A66FFF7B9
:1018A000FFFC0446414B1B6813F0007F42D0FFF75A
:1018B000F7FC001B0228F5D9032069E03B4A136CB2
:1018C00023F080531364DBE7394B00221A66FFF7DD
:1018D000E7FC0546354B1B6813F0007F06D0FFF789
:1018E000DFFC401B0228F5D9032051E0E369226A9E
:1018F0001343626A43EA8213A26A5208013A43EA36
:101900000243E26A43EA0263284A5360284B0122F9
:101910001A66FFF7C5FC0446244B1B6813F0007FD2
:1019200006D1FFF7BDFC001B0228F5D903202FE0EC
:1019300000202DE000202BE0012B2BD01B4B5B68FF
:1019400003F48001E269914226D103F03F02216A4B
:101950008A4223D1616A47F6C0721A40B2EB811FF6
:101960001ED103F44031A26A5208013AB1EB024F92
:1019700018D103F07063E26AB3EB026F14D1002058
:1019800006E001207047012002E0012000E0002075
:1019900002B070BD0120FBE70120F9E70120F7E765
:1019A0000120F5E70120F3E70120F1E700380240CC
:1019B0000000474208B5334B9B6803F00C03042B2F
:1019C0005BD0082B5BD12F4B5A6802F03F025B685B
:1019D00013F4800F2CD02B4B5868C0F388104FEABB
:1019E000401CBCEB000C6EEB0E0E4FEA8E1343EA6C
:1019F0009C634FEA8C11B1EB0C0163EB0E03DB002F
:101A000043EA5173C90011EB000C43F10003590282
:101A100000234FEA4C2041EADC51FEF7D1FB194B81
:101A20005B68C3F3014301335B00B0FBF3F008BD17
:101A3000144B5868C0F388104FEA401CBCEB000CF4
:101A40006EEB0E0E4FEA8E1343EA9C634FEA8C1145
:101A5000B1EB0C0163EB0E03DB0043EA5173C900E9
:101A600011EB000C43F10003990200234FEA8C2094
:101A700041EA9C51FEF7A4FBD1E70348D7E70348AE
:101A8000D5E700BF0038024000127A000024F400BD
:101A9000002800F09B8070B50D4604464F4B1B6834
:101AA00003F007038B4208D2CBB24C4A1370136881
:101AB00003F007038B4240F08B80236813F0020F82
:101AC00017D013F0040F04D0454A936843F4E05351
:101AD0009360236813F0080F04D0414A936843F4DD
:101AE000604393603E4A936823F0F003A1680B4380
:101AF0009360236813F0010F32D06368012B21D06B
:101B00009A1E012A25D9364A126812F0020F61D0B6
:101B100033498A6822F0030213438B60FFF7C0FB4E
:101B200006462F4B9B6803F00C036268B3EB820FF1
:101B300016D0FFF7B5FB801B41F288339842F0D9ED
:101B4000032042E0264A126812F4003FE0D101204F
:101B50003BE0234A126812F0007FD9D1012034E023
:101B60001E4B1B6803F00703AB4207D9EAB21B4BBD
:101B70001A701B6803F00703AB422DD1236813F0E2
:101B8000040F06D0164A936823F4E053E1680B4330
:101B90009360236813F0080F07D0114A936823F469
:101BA0006043216943EAC1039360FFF703FF0C4BD5
:101BB0009B68C3F303130B4AD35CD8400A4B1860ED
:101BC0000A4B1868FFF720FB002070BD012070470A
:101BD0000120FAE70120F8E70120F6E7003C024087
:101BE0000038024068820008000000200800002041
:101BF000014B1868704700BF0000002008B5FFF7D0
:101C0000F7FF044B9B68C3F38223034AD35CD8409D
:101C100008BD00BF003802406082000808B5FFF729
:101C2000E7FF044B9B68C3F34233034AD35CD840BD
:101C300008BD00BF003802406082000810B50446AD
:101C40000268136923F44053C1680B43136183682E
:101C500002691A4343691A43C3691A430168CB688E
:101C600023F4164323F00C031343CB60026853693B
:101C700023F4407381690B4353610368314A9342F3
:101C800006D002F58062934202D0FFF7B7FF01E071
:101C9000FFF7C4FFE369B3F5004F29D00021031813
:101CA00049411B1841F10001C90041EA5371DB00B1
:101CB000181863684FEA83024FEA937341F10001F9
:101CC000FEF77EFA204AA2FB00314909642303FB98
:101CD00011031B013233A2FB03235B0903F0F00263
:101CE00002EB011203F00F03216813448B6010BD57
:101CF0000023021843EB0301121841F10001C9004F
:101D000041EA5271D200101841F100016268921844
:101D10005B41FEF755FA0C4AA2FB003149096423E6
:101D200003FB1103DB003233A2FB03235B095A00E0
:101D300002F4F87202EB011203F007032168134466
:101D40008B60D4E7001001401F85EB5160B310B5E4
:101D5000044690F8413013B3242384F841302268BC
:101D6000D36823F40053D3602046FFF767FF22684F
:101D7000136923F4904313612268536923F02A0303
:101D800053612268D36843F40053D3600020606439
:101D9000202384F8413084F84230606310BD80F81D
:101DA0004030FFF7B9F9D7E7012070472DE9F04738
:101DB000089D0E4604460F46002B4AD194468C459A
:101DC000B2FA82F260D942B1C2F12003974020FA00
:101DD00003F30CFA02FC1F4394404FEA1C4E1FFA17
:101DE0008CF6B7FBFEF1230C0EFB117743EA074399
:101DF00001FB06F098420AD91CEB030301F1FF37FF
:101E000080F01581984240F21281023963441B1A16
:101E1000A4B2B3FBFEF00EFB103344EA034400FB14
:101E200006F6A6420AD91CEB040400F1FF3380F049
:101E30000081A64240F2FD806444023840EA01403D
:101E4000A41B00211DB1D4400023C5E90043BDE817
:101E5000F0878B4205D90DB1C5E900010021084684
:101E6000F5E7B3FA83F1002946D1B34202D38242A7
:101E700000F2F580841A66EB030201201746002D5C
:101E8000E5D0C5E90047E2E7002A40F09380A1EBE6
:101E90000C034FEA1C471FFA8CFE0121B3FBF7F637
:101EA00007FB1630230C43EA00430EFB06F0984272
:101EB00008D91CEB030306F1FF3802D2984200F266
:101EC000D08046461B1AA4B2B3FBF7F007FB1033D1
:101ED00044EA03440EFB00FEA64508D91CEB0404AB
:101EE00000F1FF3302D2A64500F2B6801846A4EBFB
:101EF0000E0440EA0640A5E7C1F120078B4022FA14
:101F000007FC4CEA030C06FA01FE20FA07F426FA55
:101F100007F344EA0E0400FA01F84FEA1C404FEAC6
:101F20001449B3FBF0FE1FFA8CF600FB1E3349EA9E
:101F300003430EFB06F9994502FA01F20BD91CEB9B
:101F400003030EF1FF3A80F08580994540F28280CC
:101F5000AEF1020E6344A3EB0909A4B2B9FBF0F39E
:101F600000FB139944EA094403FB06F6A64208D98C
:101F70001CEB040403F1FF3068D2A64266D9023B91
:101F8000644443EA0E40A41BA0FB02E6B44273463D
:101F9000B14652D34FD05DB1B8EB030264EB0904F4
:101FA00004FA07F722FA01F31F43CC40C5E9007495
:101FB00000214CE7C2F1200120FA01F30CFA02FCE7
:101FC00026FA01F1964033434FEA1C471FFA8CFE74
:101FD000B1FBF7F007FB1016190C41EA064100FBB4
:101FE0000EF68E4204FA02F408D91CEB010100F14E
:101FF000FF382DD28E422BD902386144891B9BB207
:10200000B1FBF7F607FB161143EA014306FB0EF19D
:10201000994208D91CEB030306F1FF3814D2994208
:1020200012D9023E63445B1A46EA004136E739465C
:10203000EDE6184602E7F045ADD2BEEB020366EBD3
:102040000C060138B146A6E74646ECE7034698E79A
:102050004046D3E7D6467EE76444023847E7084661
:102060000DE7023E63442DE7024A0349034800F0AE
:10207000C9B800BF0C000020014A00082000002061
:102080000C4B4168994210B5044601D002F0B8FCEF
:10209000A168094B994202D0204602F0B1FCE168E8
:1020A000064B994204D02046BDE8104002F0A8BC7F
:1020B00010BD00BF50070020B807002020080020F6
:1020C0002DE9F843314A324C3249DFF8CC90DFF841
:1020D000CC80334F1160002504232946082204F1E7
:1020E0005C00C4E903352F4EA560C4E90055C4E97E
:1020F0000555656600F004F904F15800C4E9074984
:10210000C4E90987E66200F0CFF92946264B6367E8
:10211000082204F1C400C4E91A55C4E91E55256714
:10212000C4F8CC50C4F8805000F0EAF804F1680319
:1021300004F1C000C4F88430C4E92298C4E92476CC
:1021400000F0B2F9194BC4F8DC30294604F596705A
:102150000822C4E93455C4E93855C4F8D850C4F845
:102160003451C4F8E85000F0CBF804F1D003C4E9CE
:102170003D87C4F8F09004F59470C4F8FC60C4F88E
:10218000EC30BDE8F84300F08FB900BF88080020AC
:1021900050070020692000087122000895220008DD
:1021A000D5220008F92200080900010012000200EF
:1021B00010B504460A4800F07BF9636B23B9094B5C
:1021C000094A1B68626323B1BDE81040044800F06F
:1021D00071B9FFF775FFBDE81040014800F06AB91A
:1021E000980800208808002081200008014800F09D
:1021F0005FB900BF98080020014800F05BB900BF3C
:10220000980800202DE9F8430746884616464FF007
:102210000009D6E90154013D10D4A389012B08D946
:10222000B4F90E3001332146384602D0C04749EA9E
:102230000009013D6B1C04F16804EED13668002EE4
:10224000E7D14846BDE8F8830FB400B5074983B02D
:1022500004AB086853F8042B8168019300F052FD29
:1022600003B05DF804EB04B0704700BF1800002015
:1022700010B50C46B1F90E1000F0BCF8002803DBD5
:10228000236D0344236510BDA38923F48053A381E8
:1022900010BD00BF2DE9F0410C46B1F90C101F46EE
:1022A000CB05054616460BD421F48051A1813B464F
:1022B000B4F90E1032462846BDE8F04100F0B0B83F
:1022C000B4F90E100223002200F07EF8B4F90C10CD
:1022D000EAE700BF10B50C46B1F90E1000F074F833
:1022E000B4F90C30421C0EBF23F4805343F48053E6
:1022F0002065A38110BD00BFB1F90E1000F052B8E7
:10230000830730B547D0541E002A3ED0CAB20346D8
:1023100001E0013C39D303F8012B9D07F9D1032CCF
:102320002CD9CDB205EB05250F2C05EB054535D98C
:10233000A4F1100222F00F0C03F1100EE6444FEA54
:10234000121C1A46C2E90055C2E902551032724504
:10235000F8D10CF1010214F00C0F03EB021204F09F
:102360000F0C13D0ACF1040323F003030433134424
:1023700042F8045B9342FBD10CF003042CB1C9B2C8
:102380001C4403F8011BA342FBD130BD6446134635
:10239000002CF4D1F9E703461446C0E71A46A446D8
:1023A000E0E700BF38B5074D0022044608462A6022
:1023B000FEF766FE431C00D038BD2B68002BFBD017
:1023C000236038BD8C08002038B50C46084D844683
:1023D000114620461A4600232B606446FEF75AFE3B
:1023E000431C00D038BD2B68002BFBD0236038BDC8
:1023F0008C08002038B50C46084D8446114620460E
:102400001A4600232B606446FEF72AFE431C00D0C8
:1024100038BD2B68002BFBD0236038BD8C08002012
:1024200038B50C46084D8446114620461A4600230E
:102430002B606446FEF7AAFE431C00D038BD2B6813
:10244000002BFBD0236038BD8C080020014B18689E
:10245000704700BF1800002070B50F4B0F4DAB4206
:10246000A3EB050607D0B610002455F8043B013451
:102470009847A642F9D805F005FE094D094B5E1BA9
:10248000AB424FEAA60606D0002455F8043B0134BF
:102490009847A642F9D870BDC4840008C4840008D7
:1024A000C4840008CC840008704700BF704700BF98
:1024B000704700BF704700BF024B13B1024800F0E5
:1024C00005B870470000000099510008002301463C
:1024D0001A46184602F0B8BE2DE9F8430646082011
:1024E000894602F06DFEDFF89C800546304600F01C
:1024F000FDFBD8F808305F6827F00307A7F1110447
:10250000A4EB09042C44B4FBF5F4013C05FB04F4F2
:10251000A54208DC0021304602F02CFED8F8083035
:102520003B44984205D0304600F0E6FB0020BDE871
:10253000F8836142304602F01DFE01300FD0124A8E
:10254000D8F808303F1B47F001075F60136830463A
:102550001B1B136000F0D0FB0120BDE8F8830021B5
:10256000304602F007FED8F80820831A0F2BDADD78
:1025700043F001035360054B03491B68C01A086010
:10258000D1E700BF70010020A008002064010020F6
:1025900000297CD0F8B50C46064600F0A7FB54F89D
:1025A000043C764FA4F1080523F001016818D7F820
:1025B00008C04268844522F0030200F08380DB07F4
:1025C000426000EB020C33D454F8084CDCF80430C1
:1025D0002D1B2144AC6807F1080C644503F001038E
:1025E00064D0D5F80CE0C4F80CE0CEF80840002B1D
:1025F00000F0818041F001036B600160B1F5007F64
:1026000022D27868CB080122490901338A4002436B
:1026100057F833107A6007EBC302083AC5E9021293
:1026200047F83350CD603046BDE8F84000F064BB59
:10263000DCF80430DB072BD541F00103B1F5007F56
:1026400044F8043C0160DCD3B1F5206F4FEA51231C
:1026500053D28B0903F1390003F13802C300F81893
:10266000FB580838984203D161E09B68984204D037
:102670005A6822F003028A42F7D8D868C5E90230C6
:102680008560DD603046BDE8F84000F035BB70473E
:10269000114407F1080C836863453FD0C268DA60D3
:1026A000936041F001036B606950A7E7002B5FD195
:1026B0000A44D0E90213CB60996042F001036B60D9
:1026C000AA50B0E70A44D90707D454F8083CED1AD9
:1026D0001A44D5E90213CB60996042F001036B60A4
:1026E000274BBD601B6893429DD8264B3046196826
:1026F000FFF7F2FE97E71144CDE7142B08D9542BCE
:102700001DD80B0B03F16F0003F16E02C300A6E7A7
:1027100003F15C0003F15B02C300A0E741F0010399
:10272000C7E90455C5E902CC6B6069507BE779685D
:102730009210012404FA02F20A437A609EE7B3F58C
:10274000AA7F06D8CB0B03F1780003F17702C30010
:1027500085E740F25452934206D88B0C03F17D007A
:1027600003F17C02C3007AE74FF47E737E2276E7A2
:1027700041F001036B60016055E700BF700100206C
:1027800068010020D00800202DE9F04F01F10B0571
:10279000162D83B0064623D8102900F2AF8000F032
:1027A000A5FA102518230220B74F3B44A3F10802D5
:1027B0005C68944200F01F816368E268A16823F0BE
:1027C0000303CA602344304691605A6842F0010214
:1027D0005A6000F091FA0834204603B0BDE8F08F4B
:1027E00035F0070500F18A80A94200F2878000F0E9
:1027F0007DFAB5F5FC7FC0F06E816B0A00F0828037
:10280000042B00F21E81AB0903F1390003F1380EED
:10281000C3009D4F3B44A3F1080C5C68A44507D15D
:102820000DE0002AE16880F2E0808C4507D00C467C
:10283000636823F003035A1B0F2AF2DD7046DFF8AA
:102840004C823C69444500F0BD80636823F0030C72
:10285000ACEB05030F2B00F34281002BC7E9048882
:1028600080F22D81BCF5007FD7F804E080F0C980AC
:102870004FEADC0101314FEA5C1C012303FA0CF33F
:1028800057F83120A2604EEA030E07EBC103083B64
:10289000E360C7F804E047F83140D46083104FF09C
:1028A000010C0CFA03FCF44532D81CEA0E0F08D1D7
:1028B00020F003004FEA4C0C1CEA0E0F00F104005C
:1028C000F8D007EBC00AD6468146DEF80C300BE0A4
:1028D000596821F003014A1B0F2A1C46DB6800F3EC
:1028E000BC80002A80F2DE809E45F1D109F1010909
:1028F00019F0030F0EF1080EE7D119E10C23336034
:10290000002469E74FF4007340204FF03F0E80E74A
:10291000BC68636823F00309A94503D3A9EB050349
:102920000F2B52DC5A4B1B68082003F1100804EBF4
:102930000903009302F044FC564A13680133A8448B
:10294000834605D008F1FF388044434203EA080873
:102950004146304602F00EFCB0F1FF3F4D4A824640
:1029600000F0D88004EB0903834200F2D1804A4B87
:10297000186840440BF1FF311860844640F0FB803A
:102980001AEA010F40F0F780D7F808A0C84448F0D1
:102990000102CAF80420414B1968814238BF18600F
:1029A0003F4B1968814238BF1860544622F0030833
:1029B000A845A8EB050301D30F2B06DC304600F039
:1029C0009BF99DE7D7F804E068E7621943F001033B
:1029D00045F0010565603046BA60536000F08CF93F
:1029E0000834204603B0BDE8F08FA2682344D160CC
:1029F00030468A60E9E6DC68A3427FF4DDAE02304F
:102A00001DE7BCF5206F4FEA5C227AD3142A00F24E
:102A1000128102F15C03DB005B32F918FB580839C4
:102A2000994203D1ECE09B68994204D05A6822F0A5
:102A300003026245F7D8D968C4E902318C60DC60D2
:102A40002CE7142B69D9542B00F2FE802B0B03F1D9
:102A50006F0003F16E0EC300DBE6D4F808C0304609
:102A6000661945F001056560CCF80C30C3F808C064
:102A700042F00103C7E90466C6E902887360625048
:102A800000F03AF90834A7E6700100207801002030
:102A9000D008002064010020A0080020CC080020FD
:102AA000C8080020214430464A6842F001024A60CA
:102AB00054F8082FD3609A6000F01EF98CE6A44405
:102AC0003046DCF8043043F00103CCF8043000F069
:102AD00013F9083480E6E80805F1080364E6621992
:102AE00043F0010145F0010565603046C7E9042265
:102AF000C2E90288516044F80C3000F0FDF8083457
:102B00006AE64FEA9C1202F13903DB00383284E7AF
:102B1000BC4228D0BC68626848E703F15C0003F15E
:102B20005B0EC30075E65AF80839534540F0DA8069
:102B300010F0030F00F1FF30F5D17B6823EA0C039E
:102B40007B604FEA4C0C9C453FF6E2AEBCF1000FB7
:102B500004D1DDE64FEA4C0C09F104091CEA030F2D
:102B6000F8D04846ADE6604B186808EB000C0BF156
:102B7000FF31C3F800C0106801306FD004EB0902C8
:102B8000AAEB020262441A601AF00702CDE90023A0
:102B900040D0C2F108029244D04408EA01005A44ED
:102BA000121A02EA010B5946304602F0E3FA421CBF
:102BB000019B6FD0A0EB0A0000EB0B081868C7F868
:102BC00008A048F001025844BC42CAF8042018602A
:102BD0003FF4E1AEB9F10F0F43D96168A9F10C02DE
:102BE00022F0070201F00101114361604FF0050C72
:102BF000A1180F2AC1E901CC54D8DAF80420CAE69A
:102C000092104FF0010C0CFA02F24EEA020EC7F8D5
:102C100004E011E70AEB08020A40ABEB020202EA09
:102C2000010B5946304602F0A5FA431C019BC1D165
:102C3000DDF800B0C2E7542A17D84FEA1C3202F17F
:102C40006F03DB006E32E8E6B3F5AA7F17D8EB0B13
:102C500003F1780003F1770EC300DAE5C2F800A0B3
:102C600092E70123CAF80430A8E6B2F5AA7F24D877
:102C70004FEADC3202F17803DB007732CDE640F236
:102C80005452934224D8AB0C03F17D0003F17C0E27
:102C9000C300BEE5009A083A9044A8EB0A084FF03A
:102CA000000B8BE7304604F108010093FFF770FC3E
:102CB000009BD7F808A018689FE740F254539A4247
:102CC0000CD84FEA9C4202F17D03DB007C32A4E683
:102CD0004FF47E737F204FF07E0E9AE54FF47E73A3
:102CE0007E229AE67B682CE7A00800200148FFF7C7
:102CF000DFBB00BF900800200148FFF7DBBB00BF2F
:102D0000900800202DE9F04FDDB0164609911C46D1
:102D100083460F9302F02AFA036818931846FDF7CA
:102D20006FFB0822179000212CA8FFF7E9FABBF1EE
:102D3000000F04D0DBF83430002B01F07380099AC7
:102D4000536EB2F90C20D80702D4910540F1778672
:102D5000970406D4099942F4005223F400538A815F
:102D60004B669D0401F14A84099AB2F90C301907A7
:102D700040F1CC801269002A00F0C88003F01A02EA
:102D80000A2A00F0D280002333AA0024CDE931338F
:102D9000CDE91B331293199320931D930B930023BA
:102DA000CDE9143430921446B246914BD3F8E45036
:102DB00002F0D6F92CAA0346009228A9524658469A
:102DC000A847002800F0D080C0F2C680289A252AA3
:102DD000034601D09A44E8E7BAEB0607054640F0FF
:102DE000C78000231A464FF0FF318DF897300C93BF
:102DF0000AF1010A9AF800300A9108920AF1010AD0
:102E0000A3F120025A2A00F2F580DFE812F036031F
:102E1000F300F3002F03F300F300F3006A00F30064
:102E2000F30075026403F30080024803F3004103DA
:102E30005B005B005B005B005B005B005B005B00BA
:102E40005B00F300F300F300F300F300F300F30082
:102E50006D01F3000102EA026D016D016D01F300E5
:102E6000F300F300F300E302F300F3008702F30042
:102E7000F300F3001E02F300BD02F300F300EC06C2
:102E8000F300F300F300F300F300F300F300F300AA
:102E90006D01F300010250026D016D016D01D00260
:102EA0005002FA01F3000403F300200312070E039B
:102EB000FA01F3001E027C00E806F300F300150798
:102EC000F3007C00A3F1300200211AF8013B01EB72
:102ED000810102EB4101A3F13002092AF5D90C91DD
:102EE0008EE7584602F042F943681D931846FDF7F5
:102EF00087FA20900546584602F038F983681B93FC
:102F0000002D40F006869AF8003077E7099D584674
:102F1000294602F00FF8002841F0B284B5F90C30D0
:102F200003F01A020A2A7FF42EAF0999B1F90E2094
:102F3000002AFFF628AF4A6ED50702D4980541F162
:102F40002C81099923463246584601F009FD0B9021
:102F50000B985DB0BDE8F08F082200212CA8FFF788
:102F6000CFF901239A4420E7BAEB0607054610D0B3
:102F7000329B3B443293319B0133072BC4E90067FA
:102F8000319310DC08340B9B3B440B93002D7FF4F2
:102F900028AF329B002B41F0E980099B0022B3F956
:102FA0000C30319218E0099930AA584601F018FD0A
:102FB00078B933ACE7E7099930AA584601F010FD1B
:102FC000002800F086800E9B1BB10E995846FFF733
:102FD000DFFA099BB3F90C30099A526ED00740F121
:102FE00006815A0601F114830B985DB0BDE8F08F9D
:102FF000780500201093002BCBD000228DF80C31E7
:103000000123CDE90D328DF8972006930A9216928E
:103010001392119243AE089B13F0020302D006995B
:10302000023106910899329D11F0840805D10C995E
:1030300006980F1A002F00F39E806AB10122626089
:10304000319A013201350DF19701072A32953192FB
:10305000216000F3CE8308346BB1319B26AA013383
:1030600002352260072B4FF00202329531936260E5
:1030700000F3B4830834B8F1800F00F0C8820A9BD3
:103080000D9A9F1A002F00F30383089BDF0500F1C0
:1030900028820D9B63601D44319B26600133072B02
:1030A0003295319300F338830834089B5E0705D5C9
:1030B0000C9B069A9E1A002E00F3A883DDE90B32C2
:1030C00006998A42ACBF9B185B180B93002D7FF4C6
:1030D00072AF002331930E9B1BB10E995846FFF738
:1030E00057FA33AC56465FE610930F9B073323F035
:1030F0000703F3E802780F9328F000431F931E970D
:10310000DDE91E01AF4B4FF0FF32CDE91478FDF73A
:1031100039FE002840F00D85DDE91E01A94B4FF076
:10312000FF32FDF711FE002840F003850022002346
:1031300038464146FDF7FEFD002841F001829DF82A
:103140009720089BA04E23F0800308939F4B109973
:103150004729D8BF1E46002303210E9306910D91E7
:103160000A93169313931193002A3FF454AF069BCE
:10317000013306934FE7102F319A41F33B82DFF87A
:1031800050C2CDF868C021462846099C21934FF0D3
:103190001009654604E0103F102F01F1080115DD0C
:1031A00001321030072AC1E90059CDE93120F2DDA2
:1031B00030AA2146584601F013FC00287FF403AFE3
:1031C000103F102FDDE9312033A9E9DC219B0C46AB
:1031D000054601321A9921603D44072ACDE931257F
:1031E000676000F30F869DF89720083425E799055E
:1031F0003FF5F7AE099CA06DFFF75CF9B4F90C3010
:10320000EFE6089B43F0200308939AF80030F5E5B9
:103210000F9A1093432B02F1040500F04D85089B93
:10322000DA0600F149850F9B1B688DF80C310123EC
:1032300006930D9343AE00220F958DF897200E92C2
:103240000A92169213921192E5E60F9F109357F887
:10325000046B00238DF89730002E00F01C85109B26
:10326000532B00F0F585089B13F01003119340F0E9
:10327000EF850A9B002BC0F2668711991A463046EB
:10328000FCF7BEFF0E90002801F09E820E9B119964
:103290009DF897200F979B1B0D9323EAE3730693EA
:1032A00073230A91169113910E9110935CE710937A
:1032B000089B9B0640F19E800F9B073323F007037A
:1032C0001A46596852F8083B0F920A460029C0F284
:1032D00001840A990029C0F27282089921F08005C0
:1032E00053EA020140F06C820A9A002A40F06D8293
:1032F00008950D925CAE60E10F9B53F8042B0C9285
:10330000002A80F2AA830C9A0F9352420C92089BD7
:1033100043F0040308939AF800306FE51093089B7C
:1033200043F010030893089B13F0200200F076830B
:103330000F9B073323F0070319465A6851F8083BDF
:103340000F91089921F48065002100200A9E8DF8D4
:103350009700002EC0F21A8125F08000089053EAF1
:10336000020040F01281002E40F06185002940F0FB
:10337000DA8415F001030D9300F09A8330238DF861
:103380006F310DF26F1618E11093089B43F0100592
:1033900015F0200200F034830F9B073323F007035E
:1033A00019465A6851F8083B0F910121CDE79AF868
:1033B0000030682B00F05B84089A42F040020892CB
:1033C0001CE500BFFFFFEF7FBC800008B88000084D
:1033D00088820008089B43F0080308939AF800309D
:1033E0000CE51093089B43F010030893089B9B0681
:1033F0003FF562AF0F9A52F8043B0F92089AD70636
:1034000000F16383089A560640F15B8343F3C032B0
:1034100011461BB25AE79AF800306C2B00F0318449
:10342000089A42F010020892E8E40F9A089B43F0D1
:10343000020552F8043B0F9247F63002ADF898208F
:103440007820AD4A19920221002210907DE7089B56
:103450009D0640F14D830F9B0B9A1B681A60D21793
:103460005A600F9B04330F9356469DE4089B43F02C
:10347000010308939AF80030C0E49DF897209AF869
:103480000030002A7FF4BAAC20228DF89720B5E4F2
:10349000089B43F0800308939AF80030AEE450464E
:1034A00010F8013B2A2B01F02382A3F13002092AF4
:1034B00098BF002101F2B18010F8013B01EB8101BE
:1034C00002EB4101A3F13002092AF5D941EAE17288
:1034D0000A92824694E42B238DF897309AF80030B4
:1034E0008CE4109B652B40F32281DDE9140100225E
:1034F0000023FDF715FC002800F0C381319B7F4AB3
:103500002260013301350122072B3295319362602D
:1035100000F392840834279B129A934280F2988297
:10352000179B189A1D44C4E90023319B329501333F
:10353000072B319300F390830834129B5E1E002EFC
:103540007FF7B3AD102E319BDFF8B49140F3DA80F2
:10355000DDF82480102704E00834103E102E40F3DC
:10356000D18001331035072BC4E90097CDE93135FF
:10357000F2DD30AA4146584601F032FA00287FF4C5
:1035800022ADDDE9313533ACE7E7089D012900F0D4
:10359000178102295CAE1FD1199803F00F011B0996
:1035A000415C06F8011D43EA0273120953EA020165
:1035B000F3D15CAB9B1B08950D930A990D989DF870
:1035C000972081424FF00003B8BF01460E93069149
:1035D000169313931193C7E503F00701DB0843EA41
:1035E0004273D208303153EA0207304606F8011D13
:1035F000F2D1EB07DDD53029DBD03023023806F8D5
:10360000013C5CAB1B1A08950D930646D5E70C9B55
:10361000069A9F1A002F7FF732AD102F319BDFF8EB
:10362000E09023DD2A464FF010084D46DDF8249047
:1036300004E0103F102F04F1080415DD01331032AF
:10364000072BC4E90058CDE93132F2DD30AA4946F2
:10365000584601F0C5F900287FF4B5AC103F102F93
:10366000DDE9313233ACE9DCA946154601333D448E
:10367000072BCDE93135C4F80090676000F3E08294
:103680000A9B0D9A9F1A002F04F108047FF7FDACE6
:10369000102F319BDFF8689021DD2A464FF010088B
:1036A000099D04E0103F102F04F1080416DD0133DA
:1036B00013491032072BC4E90018CDE93132F1DD8E
:1036C00030AA2946584601F08BF900287FF47BACDC
:1036D000103F102FDDE9313233ACE8DC1546013301
:1036E0003D44072BCDE93135C4F80090676000F305
:1036F0007B810834C9E400BFC8800008F880000856
:103700007882000801333544072BC4F800906660C6
:10371000CDE931357FF7C8AC099930AA584601F098
:103720005FF900287FF44FAC329D33ACBDE4129BAF
:10373000319F012B05F1010507F1010704F108088C
:1037400040F30E810123072FCDE9317526606360B8
:1037500000F3FA82179B189A01371D44072FC8E916
:103760000023CDE9317500F3E28208F10808129BCD
:10377000DDE914015C1E00220023FDF7D1FA0028C8
:1037800040F00781013701362544072FCDE9317517
:10379000C8F80060C8F8044000F3EE8008F108089B
:1037A0001C9BC8F8043001371D44072F2AABCDE914
:1037B0003175C8F80030AFDC08F1080475E4089DE5
:1037C0000A2B72F1000180F0CC8230338DF86F311A
:1037D000012308950D930DF26F16EEE6099930AAB4
:1037E000584601F0FDF800287FF4EDAB329D33AC74
:1037F00041E409991A9330AA584601F0F1F80028DB
:103800007FF4E1AB329D1A9B33AC25E4102E319B43
:1038100040F34787DFF8CC92DDF82480CDF868903C
:10382000102704E0103E102E04F1080415DD0133CA
:103830001035072BC4E90097CDE93135F2DD30AA08
:103840004146584601F0CCF800287FF4BCAB103E4E
:10385000102EDDE9313533ACE9DC01331A9A3544F9
:10386000072BC4E90026CDE931357FF727AC09994C
:1038700030AA584601F0B4F800287FF4A4AB329D7A
:103880001CE42799002940F3ED80DDE91183984578
:10389000A8BF9846B8F1000F0ADD319B01334544BB
:1038A000072BC4E900683295319300F38A86083407
:1038B000119FB8F1000FA8BFA7EB0807002F00F376
:1038C0005D83119B33449846089B590500F18E8512
:1038D000279B129A9342C0F20782089AD20700F1FE
:1038E0000382129AB718D61A4346FF1AB742A8BFE6
:1038F0003746002F0BDD319BC4F8008001333D4477
:10390000072B67603295319300F390860834002FBF
:10391000A8BFF61B002E7FF7C8AB102E319BDFF837
:10392000C8917FF7EFAEDDF82480102704E008345B
:10393000103E102E7FF7E6AE01331035072BC4E999
:103940000097CDE93135F2DD30AA4146584601F005
:1039500047F800287FF437ABDDE9313533ACE7E7D2
:10396000089BDB073FF5EEAE0123072FCDE931754C
:10397000266063607FF714AF099930AA584601F0BA
:103980002FF800287FF41FABDDE931750DF1CC086D
:1039900006E7129B012B7FF703AF112BDFF848914D
:1039A00040F3C182CDF828A01026CA46DDF8249045
:1039B00005E008F10808103C102C40F3B1820137F3
:1039C0001035072FC8E900A6CDE93175F1DD30AA21
:1039D0004946584601F004F800287FF4F4AADDE9CE
:1039E00031750DF1CC08E6E7099930AA584600F088
:1039F000F7FF00287FF4E7AA329D33ACFFF745BB01
:103A00000F9951F8043B0F9115F0100157D115F0A3
:103A100040004FD00A469BB2012196E40F9951F81D
:103A2000043B0F91089911F010017FF48AAC089AB9
:103A300012F0400000F0C7829BB20A4681E4099D63
:103A4000A86DFEF735FDB5F90C206B6EFFF780B958
:103A5000089BD8077FF529AB62E50F939AF80030F1
:103A6000FFF7CCB9319B214A226001330135012295
:103A7000072B32953193626000F386850834002964
:103A800040F05D82089B129A03F0010313433FF458
:103A90000CAB179B189A1D44C4E90023319B329547
:103AA0000133072B319300F36B8304F1080257E2D3
:103AB0005CAE82E515F400721CBFDBB20246012148
:103AC00043E4089A950500F12083DA17114600298E
:103AD000BFF6FFAB5B42089D62EB42022D20012145
:103AE00034E400BF8882000878820008F88000086B
:103AF000089BD80600F10E82089B590600F10B8343
:103B0000089B9A0540F106820F9B0B9A1B681A705E
:103B1000A7E41B9A9AF80030002A3FF46FA91278A4
:103B2000002A3FF46BA9089A42F480620892FFF7DA
:103B300065B9DDE9140102460B46FDF723F90028BB
:103B400040F02A86109B612B00F03985412B00F054
:103B5000E8820A9B013300F01586109B23F02003B6
:103B6000472B00F0F5850E90DDE914120898002A25
:103B700040F48079C0F2F48400231A93DDE9142321
:103B8000CDE92223109B413B252B00F23B82DFE84D
:103B900013F05B033902390239021503E5033902D8
:103BA000390239023902390239023902390239023D
:103BB000390239023902390239023902390239022D
:103BC000390239023902390239023902390239021D
:103BD00039025B033902390239021503E503089DF6
:103BE0001093FFF7D5BB1093A24B1993089B13F0CA
:103BF000200200F087800F9B073323F0070319464C
:103C00005A6851F8083B0F910898C1070BD553EA41
:103C1000020108D010998DF8991040F00201089126
:103C200030218DF89810089921F480650221FFF762
:103C30008CBB1093FFF777BB10938F4B1993D5E78D
:103C4000099930AA584600F0CBFE00287FF4BBA9A2
:103C5000329D33ACFFF713BA099930AA584600F0E9
:103C6000BFFE00287FF4AFA9329D33AC65E4089B0A
:103C700043F4007308930AF1010A9AF80030FFF741
:103C8000BDB8089B43F0200308930AF1010A9AF893
:103C90000030FFF7B3B80A9B0E96062B314628BFBB
:103CA00006230A9632460693744E0F970D9316918B
:103CB00013911191FFF758BA082200212EA8FEF7A0
:103CC0001FFB0F9B43AE1A6831462EAB584603F0DC
:103CD0005BF8034601330D9000F027860D9B23EA25
:103CE000E3730693FFF7A7BA179A18991544C4E926
:103CF0000012319A32950132072A319200F36D8415
:103D00000834EEE50F9951F8043B0F91089911F032
:103D100010017FF479AF089A12F0400000F05B8147
:103D20009BB20A4670E70A9B0D935CAE45E4099985
:103D300030AA584600F054FE00287FF444A9DDE97B
:103D400031750DF1CC0812E5099930AA584600F0FA
:103D500047FE00287FF437A9DDE931750DF1CC0865
:103D6000F8E405F480670D95DFF814911B9DCDF8FC
:103D700020A04FF0000C5CAE4FF00508069405E063
:103D80000A2B72F1000234D353462246991841F1AE
:103D90000001A9FB010424F0030000EB9400091AC0
:103DA000581A4FF0CC3462F1000E04FB00F4A0FB73
:103DB00009A009FB0E440AF0010E0444AEFB080EF4
:103DC00040184FEA5A0A303006F8010C4AEAC47A21
:103DD0000CF1010C013E6408002FD1D029788C45EC
:103DE000CED1BCF1FF0FCBD00A2B72F1000280F0D4
:103DF000CF821B95DDF820A0069C0D9DCDF848C014
:103E0000FFF7D7BB09991A9330AA584600F0E8FD8E
:103E100000287FF4D8A89DF89720329D1A9B33ACD8
:103E2000FFF70BB95846FEF7C3F9FEF788BF012923
:103E3000089D7FF4AEABC8E4099930AA584600F05B
:103E4000CFFD00287FF4BFA8329D33ACFFF763BBE2
:103E50000DF1B8080822002140462996FEF750FAD5
:103E60000A9B002BC0F285820025CDF818A0A94638
:103E70009A4616E0DC800008C8800008F080000840
:103E8000CDCCCCCC43A9584602F07EFF431C48441D
:103E900000F06884504509DC05F1040500F08E84CB
:103EA0008146299A52594346002AEBD1DDF818A0E1
:103EB000CDF834900D9B002B00F05A83632B40F318
:103EC000F483591C5846FEF75FFC0646002800F0B4
:103ED0003E850E90082200214046FEF711FA0D9D06
:103EE000CDF800802B4629AA3146584602F072FFD1
:103EF000854240F026850D990F970023735421EADF
:103F0000E1719DF897200A930691169313931193EC
:103F1000FFF72AB90F9B0B9A1B681A60FFF7A1BA2B
:103F2000D146DDF828A0C8F8009001372544072FB6
:103F3000CDE93175C8F804407FF730AC1CE5179B1C
:103F4000189A1D44C4E90023319B32950133072B95
:103F5000319300F3158104F108020029C0F2A9830E
:103F60001299166001330D44072BCDE931355160AC
:103F70003FF7D2AB02F10804FFF797B8102F319B3F
:103F8000DFF8BC9232DD49462A46B146099D4FF022
:103F900010080E4603E00834103F102F22DD0133D5
:103FA0001032072BC4E90068CDE93132F3DD30AAC5
:103FB0002946584600F014FD00287FF404A8DDE9E6
:103FC000313233ACE8E7089A12F400721CBFDBB25E
:103FD0000246FFF7B6B9089A12F400721CBFDBB2B2
:103FE000024611E6154632464E46914601333D449F
:103FF000072BCDE93135C4F80090676000F3D2801B
:1040000008345EE40A9B01932EAB049329AB03931F
:1040100027AB0293022300935846DDE9222301F0E7
:10402000EBF9089BD907064600F1FC822E9B1B1A70
:104030001293279B1193119BDA1C03DB0A9A9A4275
:1040400080F2B381109B023B1093119B013B9DF8C2
:10405000402027930021002BB8BF119B8DF8A8208A
:10406000BABFC3F101032D222B22092B8DF8A92001
:1040700040F354830DF1BF05724F2A461046A7FB4B
:104080000312D20802EB8201A3EB4101303100F8A8
:10409000011C19466329134600F1FF32EEDC303370
:1040A00002F8013C831EAB4280F03B840DF1A90273
:1040B00013F8011B02F8011FAB42F9D15CAB181ACF
:1040C000A0F1AD031C93129B1C9A012B1A440D9274
:1040D00040F353830D9B179A13440D93089B0D9A3D
:1040E00023F4806343F48073089322EAE27200238E
:1040F00016930692139311931A9B002B40F0328172
:104100009DF897200A93FFF72FB843F3C01211468A
:104110005BB2FFF7DBB80F9B0B9A1B681A80FFF7A7
:10412000A0B958238DF89930089B43F002030893F7
:1041300030238DF898300A9B632B00F3E482002330
:104140000E9343AE10E53046FCF75AF9119B0A93E3
:1041500020EAE071169313930E9373239DF8972032
:104160000D900F9706911093FEF7FEBF099930AAA4
:10417000584600F035FC00283EF40FAFFEF729BF8B
:10418000099930AA584600F02BFC00287EF41BAF9A
:10419000DDE93135279933AADFE6886DFEF78AF924
:1041A000FEF7CFBE099930AA584600F019FC002846
:1041B0007EF409AF329D33ACFFF783BB0A9B03F15A
:1041C00001080223CDE900382EAB049329AB0393F9
:1041D00027AB02935846DDE9222301F00DF9109B2D
:1041E00023F02007462F064600EB080518BF452799
:1041F00005D13378302B00F02882279B1D44DDE960
:10420000220100220023FCF78BFD002840F04582AC
:104210002E9BAB4206D230215A1C2E9219702E9B37
:104220009D42F9D8279A11929B1B472F12933FF476
:1042300002AF462F00F01782119B013B07E700BF3A
:1042400078820008CDCCCCCC27AADDE9220100F091
:10425000C5FF00224FF07F53FCF7FAFA02460B46E7
:10426000CDE9062300220023FCF75AFD08B1012303
:1042700027930A9BB54A1098CDF834A0591EB44B29
:104280001196612808BF1A463746A0460A92DDE912
:1042900006458A46164609E0002200230AF1FF3946
:1042A000FCF73EFD002840F0D782CA46A94B002209
:1042B00020462946FCF7CCFA0D460446FCF778FD6B
:1042C0008146FCF75BFA02460B4620462946FCF77E
:1042D00007F916F80930BAF1FF3F3A46044607F8E5
:1042E000013B0D46D8D1CDE906459B4BDDF834A006
:1042F000119E4446904600224D46FCF739FD0028A9
:1043000000F002830A9BCDF8B880D97B17F8012C06
:104310008A423B4609D1302003F8010C2E9B5A1EDD
:104320002E9213F8012C8A42F6D0392A0BBF0A9A32
:104330000132927AD2B203F8012C3B469B1B109AB1
:104340001293279B1193612A03F1FF33279300F007
:10435000BA8241215022109101217CE6DDF82880AB
:1043600003232FE72D2200238DF897200A93FEF7D1
:10437000FEBE00231946CDF8008029AA584602F057
:1043800029FD034601330D9000F0EC81299691E55B
:10439000209B1D99F61A1A46304600F0ADFE6B7848
:1043A00003B101354FF0000CEEE4DDE91123934237
:1043B00000F39F81089B13F0010F119B00F0E78130
:1043C000179A13440D93089B5F0503D5119B002B8F
:1043D00000F311820D9B23EAE37306936723109386
:1043E0000023CDF820901693139385E6129BCDF809
:1043F00040A006EB0309139BCDF82890002B224622
:1044000029464446DDF86CA0DDF85880099DDDF8AA
:10441000809011962EDDB8F1000F7EDD08F1FF3897
:1044200031981D9B013049440728C2E90039329177
:10443000319067DC08320A9B9AF800001F1B874204
:10444000A8BF0746002F0BDD3198013039440728FB
:10445000C2E900473291319065DC9AF800000832D9
:10446000002FACBFC61B0646002E16DC0444139B6F
:10447000002BD0DCB8F1000FD0DCDDE91163204661
:10448000F318984228BF1846CDF86CA01446DDF802
:1044900040A00D468046FFF71BBA102E31982F4BD7
:1044A00023DD0D94102734461E4604E0103C102CEA
:1044B00002F1080216DD0130284B10310728C2E94D
:1044C0000037CDE93101F1DD30AA2946584600F028
:1044D00087FA00287EF477AD103C102CDDE931011D
:1044E00033AAE8DC334626460D9C13600130314484
:1044F0000728CDE93101566053DC9AF800000832F4
:104500000444B4E730AA2946584600F069FA002866
:104510007EF459AD329933AA8DE7139B013B0AF122
:10452000FF3A13937CE730AA2946584600F058FA20
:1045300000287EF448AD9AF80000329933AA8FE73C
:104540002D228DF89720FEF7FCBD00BFDC8000080F
:10455000C8800008000030400000E03F788200087A
:1045600002F1004323932D2322911A93FFF70ABBF4
:104570000D9B9DF897200F9706930A93169313931C
:1045800011930E93FEF7F0BD099930AA584600F03A
:1045900027FA00287EF417AD2799329D33ACFFF738
:1045A0006EBA30AA2946584600F01AFA00287EF45E
:1045B0000AAD9AF80000329933AA044457E77823E9
:1045C000B0E5099930AA584600F00AFA00287EF4AE
:1045D000FAAC329D33ACFFF76BB9099930AA584653
:1045E00000F0FEF900287EF4EEAC279B329D33AC40
:1045F000FFF777B9A9491A91FEF7EBBDDC0707D49D
:10460000099B9B89980503D4099B986DFDF752FF80
:104610004FF0FF330B93FEF7E7BC002282460A926D
:10462000FEF7EEBB0A9B4727C518E8E5099930AAB3
:10463000584600F0D5F900287EF4C5AC279E129BA1
:10464000329D9E1B33ACFFF762B9DDE922010022E7
:104650000023FCF765FB002800F00E81279B1193D7
:104660001D44AB1B1293089B11990A9A03F0010396
:10467000002943EA020340F32881002B40F0E58043
:10468000119B0D9366231093089B5B0500F1B58089
:104690000D9B23EAE3730693A2E6279A11922B4619
:1046A000C2E57E4A1A92FFF7D8B800230E9343AEB4
:1046B00010E44F421031DFF8E891B8BF102404DB5A
:1046C0003AE00832103F102F36DD01331035072B4A
:1046D000C2E90094CDE93135F3DD099930AA584695
:1046E00000F07EF900287EF46EACDDE9313533AAA6
:1046F000E8E7129B179A9A18119B0D92002B70DD18
:1047000067231093C0E7591C5846FEF73DF806464C
:10471000002800F00A810E90FFF726BA002938D150
:1047200030228DF8AA200DF1AB02303302F8013BA4
:104730002AABD31A1C93C6E401333D44072BCDE9C1
:104740003135C2F80090576000F3B080083207E4BA
:104750000A9B002B7FF407AA0A9B0E9301230A935E
:10476000FFF702BA099BB3F90C3000220E9243F016
:104770004003099A9381FEF726BC089BDB077FF56F
:10478000ADACA7E406230E900A93FFF7EDB90D93A5
:1047900019E60DF1AA02C8E7159B424E002B089BB3
:1047A000A8BF9DF8972023F08003B8BF2D2208935F
:1047B000B8BF8DF897203C4BFEF7C9BC0A9BDDF8CB
:1047C00018A00D93FFF776BB0A9B06930D937323F6
:1047D0009DF897200F970A90169013901093FEF76C
:1047E000C3BCC3F101031A4422EAE27306936723B0
:1047F0000D921093F4E5672310931B990B78FF2B10
:1048000000F09B800025119A284603E00130013119
:10481000FF2B08D0934206DAD21A4B78002BF5D141
:104820000B780135F4E71B91139016951192139AAA
:10483000169B2099CDF8209013440D9A01FB032379
:104840000D9323EAE373069356E4179B1A44531817
:104850000D936623109317E751460029DDF834A025
:10486000119E4446FFF669AD4B1C3B44302207F8CD
:10487000012BBB42FBD161E5C8F101032793BDE4E5
:10488000099A536EDF073FF5C3AE93899E053FF546
:10489000BFAE906DFDF70EFEBAE600BF888200083D
:1048A00078820008C4800008C0800008099930AAF6
:1048B000584600F095F800287EF485ABDDE93135E7
:1048C00033AAFFF74DBB702246E52BB901236622C0
:1048D000069310920D9383E5179B03F101080A9B41
:1048E00043440D9323EAE37306936623109377E51D
:1048F0000F9A9AF8013052F8041B0F9241EAE171C5
:1049000082460A91FEF77ABADDE90601134B0022CE
:10491000FCF706FA00283FF410ADE8077FF50DAD6F
:10492000F0E402231C93FFF7CEBB099AB2F90C30D6
:1049300043F040039381FEF74FBB0023169313937C
:1049400075E7099BB3F90C3043F0400311E7099B6D
:104950000E90B3F90C3043F040030AE70000E03F4B
:10496000F0B51F468B89ADF26C4D23F00203ADF814
:104970000C301AAB009304934FF4806302930593B9
:104980004B6E1993CB89ADF80E30CB6907934B6A08
:10499000099315460023064616A80C460693FDF714
:1049A00083FD2A463B4669463046FEF7ABF9051EB5
:1049B00007DB6946304600F017F9002818BF4FF0B2
:1049C000FF35BDF80C305B0603D5A38943F04003E7
:1049D000A3811698FDF76AFD28460DF26C4DF0BDD7
:1049E000936810B514461BB918460023636010BDC8
:1049F00000F024F90023A3600023636010BD00BF12
:104A000070B500293FD006460C4610B1436B002B11
:104A10003CD0636EB4F90C20DD0732D4900538D554
:104A20002146304600F04CF8E36A054633B1E169AF
:104A3000304698470028B8BF4FF0FF35A3891A06C3
:104A400039D4216B41B104F14003994202D0304680
:104A5000FDF79EFD00232363616C21B13046FDF715
:104A600097FD00236364FDF7C1FB636E0022DB0743
:104A7000A2811CD5A06DFDF719FDFDF7BDFB2846F1
:104A800070BD002ACCD10025284670BDFDF790FBF3
:104A9000BFE7A06DFDF70CFDB4F90C30002BBFD1C2
:104AA000636ED907EFD4A06DFDF704FDEBE7A06DB1
:104AB000FDF700FDDEE721693046FDF769FDC0E73F
:104AC000B1F90C20F8B516070C46074649D44968D9
:104AD00042F400630029A3815FDDA56A002D3ED06A
:104AE000002112F480523E683960E16961D10123EE
:104AF0003846A847451C02466BD0B4F90C30A56A6D
:104B0000E169580705D56368D21A236B0BB1E36BD3
:104B1000D21A00233846A847411C4CD13968B4F951
:104B20000C301D293FD82F4ACA40D2073BD52269F5
:104B3000226023F40062A281DD044FF00002626073
:104B400001D5002943D0216B3E6041B104F14003FF
:104B5000994202D03846FDF71BFD00232363002055
:104B6000F8BD0E69002EFAD00D680E6092070CBFDA
:104B70004B690023AD1B8B600CE0D4F824C0E169C5
:104B80002B4632463846E047B0F1000CA5EB0C0549
:104B9000664406DD002DF0DCE1E7E16B00299CDCDA
:104BA000DDE7B4F90C3043F04003A3814FF0FF3050
:104BB000F8BD226DA5E7B4F90C302269226023F418
:104BC0000062A281DB044FF000026260BBD5206569
:104BD000B9E73B68002B90D01D2B01D0162BE0D1FC
:104BE0003E60BCE70100402038B50C46054608B1E0
:104BF000436B03B3B4F90C0088B1636EDB0701D4D7
:104C000081050FD528462146FFF75AFF636EDA0764
:104C1000054602D4A3899B0508D5284638BD05461C
:104C2000284638BDA06DFDF743FCEBE7A06DFDF70E
:104C300041FC284638BDFDF7BBFADBE79368002B43
:104C400000F0F6802DE9F04FB1F90CC01CF0080F10
:104C500083B0904681460C4631D00B697BB31CF083
:104C60000207D8F8006038D00027D4F824B0E169F2
:104C7000DFF8BCA23D4655452B463A4628BF534671
:104C80004846C5B1D847002840F3C880D8F8083056
:104C90001B1A07442D1AC8F80830002B00F0B48006
:104CA00055452B46D4F824B0E16928BF53463A460F
:104CB0004846002DE6D1D6E900750836DBE72146E7
:104CC000484600F037F9002840F0AD80B4F90CC038
:104CD000D8F800601CF00207C6D11CF0010A63D1AD
:104CE0002368A168574618468B46002F58D01CF4FD
:104CF000007F00F0B180B9420A4600F2DD801CF46A
:104D0000906F2FD0216962695D1A02EB420202EBBB
:104D1000D2726B1C52103B44934292BF93469B4607
:104D20001A461CF4806F00F0E68011464846FDF7F5
:104D30002BFD002800F0F5802A4621690190FBF741
:104D4000AFFAA289019B22F4906242F08002A28114
:104D50005819ABEB0505C4F814B02361A5602060B9
:104D6000BB463A465146019200F046F9A1682368D5
:104D7000019AA1EB0B011A443D46A1602260002775
:104D8000D8F808305B1BAA44C8F80830002B3BD089
:104D90002368A168B4F90CC018468B46002FA6D131
:104DA000D6E900A708369EE73846BB463D46002DAB
:104DB00040D0002845D03A46D4E904C32068A16811
:104DC000AA4228BF2A46604504D901EB030A52458E
:104DD00000F38280934272DCE169D4F824C05A4621
:104DE0004846E047B0F1000A18DDB7EB0A070FD0DC
:104DF0000120D8F80830A3EB0A03D344A5EB0A0539
:104E0000C8F80830002BD2D1002003B0BDE8F08FE5
:104E100021464846FFF7E8FE0028EAD0B4F90C30F6
:104E200043F04003A3814FF0FF3003B0BDE8F08FA3
:104E300000207047756833460836002DFAD0D3F845
:104E400000B02A460A215846FBF7DAF9002865D057
:104E50000130A0EB0B07AEE722699A4214D36269D6
:104E6000BA4211D86FF00043BB4228BF3B46656A87
:104E700093FBF2F3E16902FB03F348465246A8476D
:104E8000051ECBDD7F1B7BE7B94228BF39460D46A7
:104E900018460A46514600F0AFF8A1682368491B3E
:104EA0002B44A16023600029ECD121464846FFF73E
:104EB0009BFE0028E6D0B1E7BB463A4652E759468A
:104EC000019200F099F8019AA3689B1AA3602368E5
:104ED00013442360924688E75946524600F08CF806
:104EE00023685344236021464846FFF77DFE00288F
:104EF0003FF47BAF92E7484601F096FD0346002859
:104F00007FF426AF21694846FDF742FBB4F90C3027
:104F10000C22C9F8002023F0800381E76A1C1746A1
:104F20004AE70C22B4F90C30C9F8002078E700BF3A
:104F300000FCFF7F38B52F4B1B6805460C4613B1AC
:104F40005A6B002A4BD0B4F90C3018071CD52269D3
:104F500022B313F0010107D0616900204942A0602B
:104F6000A1613AB1002038BD980758BF6169A160BE
:104F7000002AF7D1190658BF1046F4D543F0400374
:104F8000A3814FF0FF3038BDD9062CD55A0712D473
:104F9000226943F00803A381002ADAD103F42071C7
:104FA000B1F5007FD5D02146284601F021FFB4F9A4
:104FB0000C302269CDE7216B51B104F140029142DE
:104FC00004D02846FDF7E4FAB4F90C30002222633D
:104FD00022690021C4E9002123F02403D9E71846FF
:104FE000FDF7E6F8AFE7092243F040032A60A3810A
:104FF000C7E700BF1800002088420ED98B188342F3
:105000000BD900EB020C002A6ED0624613F801CDDA
:1050100002F801CD9942F9D170470F2A0FD8034603
:1050200002F1FF3C002A5FD00CF1010C013B8C44E3
:1050300011F8012B03F8012F6145F9D1704740EABF
:1050400001039B0751D1A2F1100370B501F1200CAF
:1050500023F00F0501F1100E00F11004AC441B0900
:105060005EF8105C44F8105C5EF80C5C44F80C5C74
:105070005EF8085C44F8085C5EF8045C44F8045C84
:105080000EF1100EE64504F11004E9D1013312F0DF
:105090000C0F01EB031102F00F0400EB031328D0F7
:1050A000043C24F003064FEA940C1E441C1F8E4659
:1050B0005EF8045B44F8045FB442F9D10CF10104DA
:1050C00002F0030203EB840301EB840102F1FF3CD5
:1050D0004AB10CF1010C013B8C4411F8012B03F88F
:1050E000012F6145F9D170BD704702F1FF3C0346C5
:1050F0009AE72246EAE700BF40EA01039B0710B5A2
:1051000001D1032A17D8844601F1FF3E07E01EF8BB
:10511000011F03F8011B541E29B19C462246634619
:10512000002AF4D110BD9444002CFBD003F8011BDD
:105130006345FBD110BD8E468446DEF80040A4F1E5
:10514000013323EA040313F0803F71460EF1040E8D
:10515000DAD1043A032A4CF8044BEED87146D3E76F
:10516000014B93F8280170477805002000487047EC
:105170006806002038B5074D0022044608462A601C
:10518000FBF78AFF431C00D038BD2B68002BFBD0F7
:10519000236038BD8C08002038B5074D074C2C1B08
:1051A000A41005D0013C55F8043D9847002CF9D1D6
:1051B000BDE8384002F06CBFD0840008CC84000801
:1051C000082802D14FF48050704708B5FDF73EF92A
:1051D000162303604FF0FF3008BD00BFDFF85CC04E
:1051E000F8B521F000430027634504460D461646F6
:1051F000176020D8844653EA0C0C1CD0DFF840C05E
:1052000001EA0C0C0A46BCF1000F09D10D4B00223B
:10521000FBF71EFB6FF0350704460A4621F00043FA
:105220001B156FF31E52A3F2FE3342F07F553B4431
:1052300045F40015336020462946F8BDFFFFEF7F97
:105240000000F07F000050432DE9F8431B4D064657
:10525000286898460F469146FDF72AF9184B1C68B6
:105260001CB3286865681F2D22DC4EB96B1C023503
:10527000636044F82570FDF71DF90020BDE8F88350
:1052800004EB85010123C1F88890D4F88821AB4054
:105290001A43022EC4F88821C1F80881E6D1D4F857
:1052A0008C211A43C4F88C21E0E7064C1C60D8E737
:1052B000FDF700F94FF0FF30E0E700BF600100208C
:1052C0009C080020D40800202DE9F04F03690C69E8
:1052D000A34283B0C0F28A80013C01F1140500F1C1
:1052E000140855F8243058F8242001339A428E4689
:1052F00081464FEA840105EB840708EB840AB2FB80
:10530000F3F63AD3CDE900150022AC4640461346E9
:105310005CF8041B05681FFA81FB06FB0B22090CD5
:105320004FEA124B06FB01BB92B2A9B2891A19448B
:105330001FFA8BF3C3EB214303EB154389B241EA18
:105340000341674540F8041B4FEA1B424FEA2343E1
:10535000DED2DDE9001558F8013073B9AAF1040A6C
:10536000D04504D307E0D04504F1FF3403D25AF806
:105370000439002BF7D0C9F810407146484601F0B7
:1053800019FA00282EDB4146002255F8040BD1F80B
:1053900000C01FFA80FE1FFA8CF3A3EB0E03134428
:1053A000020CC2EB234202EB1C429BB243EA0243D3
:1053B000AF4241F8043B4FEA2242E6D258F824209B
:1053C00008EB84036AB9043B434504D807E09845D9
:1053D00004F1FF3403D253F80429002AF7D0C9F8A6
:1053E00010400136304603B0BDE8F08F002003B016
:1053F000BDE8F08F000000002DE9F04F816B9BB0FD
:1054000016461F46CDE90667279D049049B1C26B39
:105410004A600123934004468B6000F069FF00233B
:10542000A363B7F10009B4BF012300232B60784BBD
:10543000BCBF29F00049CDF81C9033EA090300F005
:10544000AD80DDE906340022184621460023CDE96F
:105450000201FBF765FC804668B1269A01231360C0
:10546000289B13B1289A6B4B13606B4B05930598DF
:105470001BB0BDE8F08F18AB019319AB00930498F3
:10548000DDE9022301F072FA5FEA1955824640F025
:105490009B80DDE91885454405F23243202B40F31B
:1054A0008D83C3F1400309FA03F905F2124326FA8A
:1054B00003F349EA0300FBF751F90123013DA1F190
:1054C000F8711093554B0022FBF70AF84AA3D3E971
:1054D0000023FBF7BDF94AA3D3E90023FBF702F849
:1054E000064628460F46FBF749F947A3D3E90023B0
:1054F000FBF7AEF902460B4630463946FAF7F2FFA3
:1055000006460F46FBF754FC002204460890002391
:1055100030463946FBF70EFC002840F02583089CF6
:10552000A8EB050808F1FF33162C099300F28B81D4
:105530003B4B03EBC403D3E90023DDE90201FBF796
:10554000F9FB002872D0631E089300230F9308F123
:10555000FF33002BC0F27E8100230A93089B002BAF
:105560006ADA089B0A9A0B93D21A0A925A420023CB
:105570000893249B0E92092B68D8052B40F32383B4
:10558000043B24930025249B023B032B00F2358629
:10559000DFE813F071046E0465044904269AC9F328
:1055A000130942F20F7359EA060913601CD1289BB4
:1055B000002B00F042861B4B05930833289A059870
:1055C00013601BB0BDE8F08FDDE90212C2F31303D4
:1055D000084643F07F51CDF84080A5F2FF35DDF855
:1055E000608041F440116DE7289B002B40F0F6836A
:1055F0000D4B05933BE700BF61436F63A787D23F25
:10560000B3C8608B288AC63FFB799F501344D33FB1
:105610000000F07FF9800008F88000080000F83FE3
:10562000D08200084481000850810008B8F1000FC2
:1056300040F3A6840F900A90DDE9082313440993F0
:1056400000230E93249B0B92092B96D90023CDE9BE
:10565000243301250C954FF0FF3B049BCDF844B05B
:105660000021D963049800F01DFE0590002800F089
:10567000CD85DDE90432BBF10E0F9A6300F219818A
:10568000002D00F016810B99002940F34984B44B9A
:1056900001F00F0203EBC203C805D3E900894FEA0A
:1056A000211540F10B84AF4BDDE90201D3E908235A
:1056B000FBF7F8F9CDE9120105F00F0503277DB1DD
:1056C000A84EE90708D540464946D6E90023FBF72E
:1056D000BFF80137804689466D1006F10806F0D103
:1056E00042464B46DDE91201FBF7DCF9804689466C
:1056F0000F9B43B19C4B002240464946FBF71AFBE7
:10570000002840F00A853846FBF738F842464B46F9
:10571000FBF79EF8954B0022FAF7E4FEA1F15073D7
:10572000CDE912011393BBF1000F00F0A9800B9B90
:10573000CDE916B349464046FBF73AFB8849169C2B
:1057400001EBC40353E902120546CDE91412FBF73D
:1057500015F80B46024649464046FAF7C1FE059F3A
:105760000C9B30357E1CECB2804689463546002BBA
:1057700000F06E84DDE914237D490020FBF792F9E7
:10578000DDE91223FAF7ACFE3C7042464B46044674
:105790000D46FBF7EDFA002840F0B784CDF850B085
:1057A0000027DDF858B0CDF848A02BE001375F4561
:1057B00080F2FD846F4B204629460022FBF748F813
:1057C0006C4B002204460D4640464946FBF740F824
:1057D00089468046FBF7ECFA8246FAF7CFFF02468D
:1057E0000B4640464946FAF77BFE0AF1300A06F8B6
:1057F00001AB22462B4680468946FBF79BFA0028E0
:1058000040F0D28442464B4657490020FAF768FEE2
:1058100022462B46FBF78EFA0028C7D0179BDDF8EF
:1058200048A0059A374603F1010802E0974200F0CC
:105830009A843E4617F8013D392BF7D00133DBB28D
:105840003B7045467FE101230F9308F1FF33002BA6
:10585000BFF682AEC8F101030A93002309937DE6E7
:105860003846FAF78BFF42464B46FAF7F1FF3F4BBB
:105870000022FAF737FEA1F15073CDE9120113931C
:105880003D4B002240464946FAF72AFEDDE9124523
:1058900022462B4606460F46FBF76AFA002840F0E0
:1058A000718430463946224605F10043FBF742FA3F
:1058B00028BB199B002BC0F291800B9A0E2A00F393
:1058C0008D80274B0B9A03EBC203D3E90034CDE95B
:1058D0000634259B002B19DABBF1000F16DC0ED124
:1058E000254B0022DDE90601FAF7B2FF02460B461E
:1058F000DDE90201FBF728FA002800F043840023C9
:10590000059E02931F46259BDD432EE2059B5D1CF1
:10591000DDE90678DDE902013A464346FBF7C2F8C5
:10592000FBF746FA0646FAF729FF3A464346FAF7E6
:105930008FFF02460B46DDE90201FAF7D1FD059A19
:1059400006F13003BBF1010F2F46137000F02383E3
:105950000125CDF808A0A846DDE9069A2CE000BF95
:10596000D0820008A88200080000F03F00001C4020
:105970000000E03F00002440000014404A46534627
:1059800020462946FBF78EF8FBF712FA0646FAF78F
:10599000F5FE4A465346FAF75BFF08F101080B464D
:1059A000024629462046FAF79BFD06F13003D8450A
:1059B00007F8013B00F0ED82844B0022FAF748FF24
:1059C0000022002304460D46FBF7AAF90028D5D093
:1059D0000B9DDDF808A001353E46B4E00C9A002A84
:1059E00040F0D88000230E9E0A9D0C931F4665B19F
:1059F000099900290B4608DD0A9AA942A8BF2B463F
:105A0000D21AED1ACB1A0A9209930E9B53B10C9B32
:105A100013B1002E40F0F88251460E9A049800F01F
:105A2000F7FD82460498012100F00EFD089B0290CC
:105A3000002B40F0BE81249B012B40F3D481012038
:105A4000099A104410F01F0000F09B80C0F1200361
:105A5000042B40F3E3810A9BC0F11C000344024481
:105A60000A93054409920A9B002B05DD51460498D0
:105A70001A4600F027FE8246099B002B05DD02999D
:105A800004981A4600F01EFE02900F9B002B40F077
:105A90007581BBF1000F40F34C810C9B002B40F053
:105AA000A4800B9D0135DDF81480029CDDF8109078
:105AB000012607E0514600230A22484600F022FC56
:105AC0000136824621465046FFF7FEFBB34500F102
:105AD000300008F8010BEDDCBBF1000F059BCCBFDB
:105AE0005E460126814603EB060B00245146012247
:105AF000049800F0E7FD0299824600F05BFE002862
:105B000040F3EF81059A02E0934500F004825E467F
